:100000000C9434000C9451000C9451000C94510049
:100010000C94EF010C9451000C9451000C9451007D
:100020000C9451000C9451000C9451000C9451000C
:100030000C9451000C9451000C9451000C945100FC
:100040000C9451000C9451000C9451000C945100EC
:100050000C9451000C9451000C9451000C945100DC
:100060000C9487000C94510011241FBECFEFD8E0F0
:10007000DEBFCDBF11E0A0E0B1E0EEE3FAE002C0E8
:1000800005900D92A832B107D9F711E0A8E2B1E0CE
:1000900001C01D92A533B107E1F70E9495010C94B0
:1000A0001D050C94000091E090932D0180932F0189
:1000B000609330014093340110922E018091BC0076
:1000C00080628093BC00909332018AE08093330178
:1000D00080912E018823E1F3089510922D018093E1
:1000E0002F016093340110922E018091BC00806238
:1000F0008093BC0081E0809332018FEF80933301C5
:1001000080912E018823E1F38091310108951F929F
:100110000F920FB60F9211248F939F938091B90085
:1001200090E0887F90708831910549F1893191057F
:100130003CF48830910581F0409709F05CC043C0E1
:100140008034910509F44BC08835910509F44EC0FF
:10015000889709F050C01DC080912D01882321F09F
:1001600080913401816002C0809134018093BB0092
:100170008091BC008F7D8093BC0082E021C0809183
:100180002F018093BB0083E08093320110922801FD
:1001900071C080912801882309F064C080912D01ED
:1001A000882341F0809130018093BB0081E08093EF
:1001B000280105C08091BC0080628093BC0084E06F
:1001C0008093320157C08091340181608093BB00DD
:1001D0008091BC008F7D8093BC0085E0F1CF809141
:1001E000BC008F7B8093BC0086E0EACF8091BB008F
:1001F0008093310137C08091330181508093330166
:1002000080913201833089F0843028F48130B9F054
:10021000823021F507C08530B1F0853048F0863056
:10022000E9F417C08091340111C080912F010EC0F4
:1002300080912D01882319F08091300107C08091B1
:10024000BC00806209C08091340181608093BB0052
:1002500005C08091BC008F7B8093BC0080913301EE
:10026000882341F48091BC0080618093BC0081E0D0
:1002700080932E018091BC0080688093BC009F9188
:100280008F910F900FBE0F901F90189582E1809371
:10029000B800E9EBF0E080818160808385E880939D
:1002A000BC00599A2DE231E0C90160E070E048E0FD
:1002B00050E00E94250208958CE284B981E78CBD4C
:1002C00008958EBD0DB407FEFDCF8EB508958EBD89
:1002D0000DB407FEFDCF8EB5089589E191E0089534
:1002E000E0ECF0E095838483108288E9818386E0E6
:1002F00082830895982F8091C00085FFFCCFE0ECA9
:10030000F0E0968308958091C00087FFFCCF809134
:10031000C6000895982F8091C00085FFFCCFE0ECC7
:10032000F0E0968380E090E00895CF92DF92EF9224
:10033000FF921F93CF93DF9378940E946D01EC019D
:1003400087E690E00E9470010E94E70180E091E062
:10035000BE010E94400210E090E9C92E91E0D92E22
:1003600080E1E82E81E0F82E27C0812F0E941B0239
:100370002DB73EB7285030400FB6F8943EBF0FBEA1
:100380002DBFEDB7FEB73196ADB7BEB71296DC9371
:10039000CE931197F382E2821483158286831782AB
:1003A0000E942C021F5F2DB73EB7285F3F4F0FB64C
:1003B000F8943EBF0FBE2DBF1430B8F288E893E129
:1003C000F6013197F1F70197D9F710E0CECF17B8C2
:1003D00082E0809368008FE080936C0008951F9204
:1003E0000F920FB60F9211248F93309B04C081E0BF
:1003F0008093290102C010922901319B04C081E041
:1004000080932A0102C010922A01329B04C081E02D
:1004100080932B0102C010922B01339B04C081E01A
:1004200080932C0102C010922C018F910F900FBE6F
:100430000F901F901895843010F08FEF0895E82FDB
:10044000F0E0E75DFE4F80810895DC0101C06D930F
:1004500041505040E0F70895A0E0B0E0E2E3F2E060
:100460000C94F6049E01275F3F4F8D819E816F8122
:100470007885A9010E9469022096E2E00C94120599
:10048000EF92FF920F931F93CF93DF937C018B0129
:10049000DB0113968C9181FD03C0CFEFDFEF13C01A
:1004A000C0E0D0E00BC0D8011896ED91FC911997EF
:1004B000B8010995892B11F0CFEFDFEFF70181919A
:1004C0007F01882381F7CE01CDB7DEB7E6E00C943B
:1004D0000E05ABE0B0E0EFE6F2E00C94E6043C0180
:1004E0002B015A01FC0117821682838181FD03C012
:1004F0006FEF7FEFC6C19AE0892E1E010894211C80
:10050000311CF3012381F20123FD859123FF8191A9
:100510002F01882309F4B2C1853239F423FD859176
:1005200023FF81912F01853229F490E0B3010E94CD
:100530005C04E7CF982FFF24EE249924FFE1FF15F8
:10054000D0F09B3269F09C3228F4903259F093320B
:1005500091F40EC09D3249F0903369F441E024C01B
:1005600052E0F52A84E0F82A28C098E0F92A25C04C
:10057000E0E1FE2A22C0F7FC29C0892F80538A308F
:1005800070F4F6FE05C0989C902C1124980E15C0AE
:10059000E89CE02C1124E80EF0E2FF2A0EC09E3207
:1005A00029F4F6FC6BC140E4F42A07C09C3619F428
:1005B00050E8F52A02C0983649F4F20123FD9591DE
:1005C00023FF91912F01992309F0B8CF892F8554EA
:1005D000833018F08052833038F444E050E0A40EA9
:1005E000B51E5FE359830FC0933631F0933779F02E
:1005F000933509F056C020C0F5018081898342E01F
:1006000050E0A40EB51E610101E010E012C0F5013A
:10061000C080D180F6FC03C06FEF7FEF02C0692D70
:1006200070E042E050E0A40EB51EC6010E945104E5
:100630008C015FE7F52214C0F501C080D180F6FC83
:1006400003C06FEF7FEF02C0692D70E042E050E021
:10065000A40EB51EC6010E9446048C0150E8F52A7E
:10066000F3FE07C01AC080E290E0B3010E945C0470
:10067000EA948E2D90E008171907A8F30EC0F60132
:10068000F7FC8591F7FE81916F0190E0B3010E9424
:100690005C04E110EA94015010400115110579F74E
:1006A000EAC0943611F0993669F5F7FE08C0F501F5
:1006B000208131814281538184E090E00AC0F501BC
:1006C000808191819C01442737FD4095542F82E021
:1006D00090E0A80EB91E9FE6F92257FF09C0509579
:1006E0004095309521953F4F4F4F5F4FE0E8FE2AF0
:1006F000CA01B901A1012AE030E00E948804D82E85
:10070000D21840C0953729F41F2D1F7E2AE030E013
:100710001DC01F2D197F9F3661F0903720F498354A
:1007200009F0ACC00FC0903739F0983709F0A6C077
:1007300004C028E030E00AC0106114FD146020E11C
:1007400030E004C014FD166020E132E017FF08C05D
:10075000F501608171818281938144E050E008C09D
:10076000F50180819181BC0180E090E042E050E0A1
:10077000A40EB51EA1010E948804D82ED2188FE7BE
:10078000F82EF122F6FE0BC05EEFF522D91438F4F4
:10079000F4FE07C0F2FC05C08FEEF82202C01D2D4A
:1007A00001C0192DF4FE0DC0FE01ED0DF11D80817B
:1007B000803319F499EEF92208C01F5FF2FE05C0DC
:1007C00003C08F2D867809F01F5F0F2DF3FC14C036
:1007D000F0FE0FC01E1510F09D2C0BC09D2C9E0C22
:1007E000911A1E2D06C080E290E0B3010E945C04C5
:1007F0001F5F1E15C0F304C01E1510F4E11A01C0DE
:10080000EE2404FF0FC080E390E0B3010E945C047B
:1008100002FF1DC001FD03C088E790E00EC088E51F
:1008200090E00BC0802F867891F001FF02C08BE230
:1008300001C080E2F7FC8DE290E0B3010E945C040D
:1008400006C080E390E0B3010E945C049A94D9143E
:10085000C0F3DA94F101ED0DF11D808190E0B30158
:100860000E945C04DD20A9F706C080E290E0B3019D
:100870000E945C04EA94EE20C1F743CEF301668146
:100880007781CB012B96E2E10C940205FC010590E7
:10089000615070400110D8F7809590958E0F9F1F82
:1008A0000895FC016150704001900110D8F78095C7
:1008B00090958E0F9F1F08950F931F93CF93DF93F3
:1008C0008C01EB018B8181FF1BC082FF0DC02E814B
:1008D0003F818C819D812817390764F4E881F98173
:1008E0000193F983E88306C0E885F985802F09958F
:1008F000892B31F48E819F8101969F838E8302C064
:100900000FEF1FEFC801DF91CF911F910F91089555
:10091000FA01AA27283051F1203181F1E8946F9330
:100920006E7F6E5F7F4F8F4F9F4FAF4FB1E03ED0D6
:10093000B4E03CD0670F781F891F9A1FA11D680F74
:10094000791F8A1F911DA11D6A0F711D811D911DA7
:10095000A11D20D009F468943F912AE0269F11241C
:100960003019305D3193DEF6CF010895462F477080
:10097000405D4193B3E00FD0C9F7F6CF462F4F70DB
:10098000405D4A3318F0495D31FD4052419302D039
:10099000A9F7EACFB4E0A6959795879577956795DF
:1009A000BA95C9F700976105710508959B01AC01DF
:1009B0000A2E06945795479537952795BA95C9F706
:1009C000620F731F841F951FA01D08952F923F92E1
:1009D0004F925F926F927F928F929F92AF92BF924F
:1009E000CF92DF92EF92FF920F931F93CF93DF93FB
:1009F000CDB7DEB7CA1BDB0B0FB6F894DEBF0FBE58
:100A0000CDBF09942A88398848885F846E847D84A4
:100A10008C849B84AA84B984C884DF80EE80FD80A6
:100A20000C811B81AA81B981CE0FD11D0FB6F8941C
:0E0A3000DEBF0FBECDBFED010895F894FFCFDD
:100A3E0054657374652064652064656275670A0089
:100A4E0025643A202025640A000000000200000000
:080A5E00008A01000000000005
:00000001FF
