:100000000C9434000C9451000C9451000C94510049
:100010000C94EC020C9451000C9451000C9451007F
:100020000C9451000C9451000C9451000C9451000C
:100030000C9451000C9451000C9451000C945100FC
:100040000C9451000C9451000C9495010C945100A7
:100050000C9451000C9451000C9451000C945100DC
:100060000C9487000C94510011241FBECFEFD8E0F0
:10007000DEBFCDBF11E0A0E0B1E0E6E5F6E002C0F2
:1000800005900D92A631B107D9F711E0A6E1B1E0D4
:1000900001C01D92AC36B107E1F70E94BB010C9480
:1000A00029030C94000091E090931B0180931D01A3
:1000B00060931E014093220110921C018091BC00AC
:1000C00080628093BC00909320018AE0809321019C
:1000D00080911C018823E1F3089510921B01809305
:1000E0001D016093220110921C018091BC0080626E
:1000F0008093BC0081E0809320018FEF80932101E9
:1001000080911C018823E1F380911F0108951F92C3
:100110000F920FB60F9211248F939F938091B90085
:1001200090E0887F90708831910549F1893191057F
:100130003CF48830910581F0409709F05CC043C0E1
:100140008034910509F44BC08835910509F44EC0FF
:10015000889709F050C01DC080911B01882321F0B1
:1001600080912201816002C0809122018093BB00B6
:100170008091BC008F7D8093BC0082E021C0809183
:100180001D018093BB0083E0809320011092160133
:1001900071C080911601882309F064C080911B0111
:1001A000882341F080911E018093BB0081E0809301
:1001B000160105C08091BC0080628093BC0084E081
:1001C0008093200157C08091220181608093BB0001
:1001D0008091BC008F7D8093BC0085E0F1CF809141
:1001E000BC008F7B8093BC0086E0EACF8091BB008F
:1001F00080931F0137C0809121018150809321019C
:1002000080912001833089F0843028F48130B9F066
:10021000823021F507C08530B1F0853048F0863056
:10022000E9F417C08091220111C080911D010EC018
:1002300080911B01882319F080911E0107C08091D5
:10024000BC00806209C08091220181608093BB0064
:1002500005C08091BC008F7B8093BC008091210100
:10026000882341F48091BC0080618093BC0081E0D0
:1002700080931C018091BC0080688093BC009F919A
:100280008F910F900FBE0F901F90189582E1809371
:10029000B800E9EBF0E080818160808385E880939D
:1002A000BC00599A2BE131E0C90160E070E048E000
:1002B00050E00E94220308958CE284B981E78CBD4E
:1002C00008958EBD0DB407FEFDCF8EB508958EBD89
:1002D0000DB407FEFDCF8EB5089580E091E008953E
:1002E000E0ECF0E095838483108288E9818386E0E6
:1002F00082830895982F8091C00085FFFCCFE0ECA9
:10030000F0E0968308958091C00087FFFCCF809134
:10031000C6000895982F8091C00085FFFCCFE0ECC7
:10032000F0E0968380E090E008951F920F920FB660
:100330000F9211242F933F934F935F936F937F936B
:100340008F939F93AF93BF93EF93FF938091C600DA
:100350000E94C302FF91EF91BF91AF919F918F9146
:100360007F916F915F914F913F912F910F900FBEB1
:100370000F901F9018951F93CF93DF9378940E944E
:100380006D01909369018093680187E690E00E9477
:1003900070010E9491020E94E40280E284B910E0A0
:1003A000C0E9D1E009C0882339F0812F0E941803E9
:1003B000612F6B5F0E942F020E947A02882321F036
:1003C0001F5F143009F410E028E833E1FE01319793
:1003D000F1F721503040D1F7E6CFCF92DF92EF9284
:1003E000FF920F931F93CF93DF936C01EB012FEFDD
:1003F0003FEF40E050E060E070E0B1E0EB2EB0EAAB
:10040000FB2E012D112D1EC0F601E60FF71F808176
:1004100090E0A0E0B0E0282739274A275B27E8E0F2
:10042000F0E0C901817090705695479537952795F2
:10043000892B21F02E253F2540275127319789F719
:100440006F5F7F4F6C177D07FCF2C901DF91CF9181
:100450001F910F91FF90EF90DF90CF900895EF9252
:10046000FF920F931F93DF93CF93CDB7DEB72897FB
:100470000FB6F894DEBF0FBECDBFDE011196EEE0E1
:10048000F1E098E001900D929150E1F72D986C8386
:100490001D828E838E010F5F1F4FC80166E070E0E2
:1004A0000E94ED019F83888789E0E82EF12CEC0EF5
:1004B000FD1EF80181918F010E947A010E151F0522
:1004C000C1F781E028960FB6F894DEBF0FBECDBF0E
:1004D000CF91DF911F910F91FF90EF9008951F939F
:1004E000182F0E94E10290E0811709F491E0892F12
:1004F0001F9108951F9388E00E946F02882311F0D6
:1005000081E00DC010E00E94A802113021F481307A
:1005100011F480E004C01F5F1830A9F782E01F913A
:10052000089510922301109224011092250108953C
:100530008091230190E0882309F491E0892F0895A8
:100540008091230190E0803409F491E0892F08958F
:1005500080912301882319F420E0822F089580914F
:100560002301815080932301E0912401F0E0ED5DAF
:10057000FE4F23818091240190E001968F7390704B
:1005800080932401EACF982F80912301803411F4C5
:1005900080E00895809123018F5F80932301E09193
:1005A0002501F0E0ED5DFE4F9383809125018F5F83
:1005B00080932501809125018F738093250181E02F
:1005C000089580912301089517B882E08093680010
:1005D0008FE080936C0008951F920F920FB60F92D8
:1005E00011248F93309B04C081E08093170102C0D7
:1005F00010921701319B04C081E08093180102C062
:1006000010921801329B04C081E08093190102C04E
:1006100010921901339B04C081E080931A0102C03B
:1006200010921A018F910F900FBE0F901F90189586
:10063000843010F08FEF0895E82FF0E0E95EFE4F70
:1006400080810895DC0101C06D9341505040E0F776
:060650000895F894FFCFAD
:1006560000000002000000008A01000000001501F1
:0606660000050000000089
:00000001FF
