:100000000C9434000C9451000C9451000C94510049
:100010000C9476030C9451000C9451000C945100F4
:100020000C9451000C9451000C9451000C9451000C
:100030000C9451000C9451000C9451000C945100FC
:100040000C9451000C9451000C9495010C945100A7
:100050000C9451000C9451000C9451000C945100DC
:100060000C9487000C94510011241FBECFEFD8E0F0
:10007000DEBFCDBF11E0A0E0B1E0ECE4FDE002C0E6
:1000800005900D92A033B107D9F711E0A0E3B1E0DC
:1000900001C01D92A035B107E1F70E949F010C94A9
:1000A000A4060C94000091E09093350180933701F1
:1000B0006093380140933C01109236018091BC005E
:1000C00080628093BC0090933A018AE080933B0168
:1000D000809136018823E1F30895109235018093D1
:1000E000370160933C01109236018091BC00806220
:1000F0008093BC0081E080933A018FEF80933B01B5
:10010000809136018823E1F38091390108951F928F
:100110000F920FB60F9211248F939F938091B90085
:1001200090E0887F90708831910549F1893191057F
:100130003CF48830910581F0409709F05CC043C0E1
:100140008034910509F44BC08835910509F44EC0FF
:10015000889709F050C01DC080913501882321F097
:1001600080913C01816002C080913C018093BB0082
:100170008091BC008F7D8093BC0082E021C0809183
:1001800037018093BB0083E080933A0110923001E5
:1001900071C080913001882309F064C080913501DD
:1001A000882341F0809138018093BB0081E08093E7
:1001B000300105C08091BC0080628093BC0084E067
:1001C00080933A0157C080913C0181608093BB00CD
:1001D0008091BC008F7D8093BC0085E0F1CF809141
:1001E000BC008F7B8093BC0086E0EACF8091BB008F
:1001F0008093390137C080913B01815080933B014E
:1002000080913A01833089F0843028F48130B9F04C
:10021000823021F507C08530B1F0853048F0863056
:10022000E9F417C080913C0111C0809137010EC0E4
:1002300080913501882319F08091380107C08091A1
:10024000BC00806209C080913C0181608093BB004A
:1002500005C08091BC008F7B8093BC0080913B01E6
:10026000882341F48091BC0080618093BC0081E0D0
:10027000809336018091BC0080688093BC009F9180
:100280008F910F900FBE0F901F90189582E1809371
:10029000B800E9EBF0E080818160808385E880939D
:1002A000BC00599A25E331E0C90160E070E048E004
:1002B00050E00E94AC0308958CE284B981E78CBDC4
:1002C00008958EBD0DB407FEFDCF8EB508958EBD89
:1002D0000DB407FEFDCF8EB5089589E191E0089534
:1002E000E0ECF0E095838483108288E9818386E0E6
:1002F00082830895982F8091C00085FFFCCFE0ECA9
:10030000F0E0968308958091C00087FFFCCF809134
:10031000C6000895982F8091C00085FFFCCFE0ECC7
:10032000F0E0968380E090E008951F920F920FB660
:100330000F9211240F900FBE0F901F901895AF923F
:10034000BF92CF92DF92FF920F931F93CF93DF93D1
:1003500078940E946D01EC0187E690E00E947001A4
:100360000E946E0380E091E0BE010E94C70390E10D
:10037000A92E91E0B92E80E9C82E81E0D82E81E027
:100380000E94A203F82E82E00E94A203082F83E0BD
:100390000E94A203182F84E00E94A203282F8F2D11
:1003A000602F412F0E944B0200E010E0802F0E943E
:1003B000A2032DB73EB7285030400FB6F8943EBF89
:1003C0000FBE2DBFEDB7FEB73196ADB7BEB71296D3
:1003D000DC93CE931197B382A28215830483868324
:1003E00017820E94B3030F5F1F4F2DB73EB7285FE0
:1003F0003F4F0FB6F8943EBF0FBE2DBF043011051E
:10040000A9F688E893E1F6013197F1F70197D9F75A
:10041000B6CFCF92DF92EF92FF920F931F93CF93BD
:10042000DF936C01EB012FEF3FEF40E050E060E025
:1004300070E0B1E0EB2EB0EAFB2E012D112D1EC0B5
:10044000F601E60FF71F808190E0A0E0B0E02827DA
:1004500039274A275B27E8E0F0E0C90181709070F6
:100460005695479537952795892B21F02E253F25C1
:1004700040275127319789F76F5F7F4F6C177D07B2
:10048000FCF2C901DF91CF911F910F91FF90EF9086
:10049000DF90CF9008957F928F929F92AF92BF92FC
:1004A000CF92DF92EF92FF920F931F93DF93CF9340
:1004B000CDB7DEB728970FB6F894DEBF0FBECDBF1D
:1004C000982F962E842E722EDE011196E7E2F1E02F
:1004D00088E001900D928150E1F785E08C831D82C8
:1004E0009E836E010894C11CD11CC60166E070E0B9
:1004F0000E9409029F838887560176018E01075F5B
:100500001F4FF70181917F010E947A01E016F106E9
:10051000C1F78601F80181918F0190E00E9483016B
:100520000E151F05B9F780E197E220E931E0F901E6
:100530003197F1F70197D9F786E08C831D829E826F
:10054000CE01019666E070E00E9409029F838887D1
:100550008601F80181918F010E947A010E151F0515
:10056000C1F78601F80181918F0190E00E9483011B
:100570000E151F05B9F780E197E220E931E0F90196
:100580003197F1F70197D9F787E08C831D828E822E
:10059000CE01019666E070E00E9409029F83888781
:1005A0008601F80181918F010E947A010E151F05C5
:1005B000C1F78601F80181918F0190E00E948301CB
:1005C0000E151F05B9F780E197E220E931E0F90146
:1005D0003197F1F70197D9F788E08C831D827E82ED
:1005E000CE01019666E070E00E9409029F83888731
:1005F0008601F80181918F010E947A010E151F0575
:10060000C1F7F50181915F0190E00E948301AE1472
:10061000BF04B9F780E197E220E931E0F9013197B1
:10062000F1F70197D9F780E028960FB6F894DEBF6E
:100630000FBECDBFCF91DF911F910F91FF90EF9033
:10064000DF90CF90BF90AF909F908F907F90089554
:1006500010923D0110923E0110923F01089590E0EA
:1006600080913D01882309F491E0892F089590E05D
:1006700080913D01803109F491E0892F08958091A6
:100680003D01882319F420E0822F08958150809342
:100690003D0180913E0190E0FC01E35CFE4F23812F
:1006A00001968F70907080933E01EECF282F80913D
:1006B0003D01803111F480E008958F5F80933D010A
:1006C00080913F0190E0FC01E35CFE4F23830196A3
:1006D0008F70907080933F0181E0089517B882E099
:1006E000809368008FE080936C0008951F920F92B2
:1006F0000FB60F9211248F93309B04C081E080933A
:10070000310102C010923101319B04C081E080931D
:10071000320102C010923201329B04C081E080930A
:10072000330102C010923301339B04C081E08093F7
:10073000340102C0109234018F910F900FBE0F90C0
:100740001F901895843010F08FEF0895E82FF0E097
:10075000EF5CFE4F80810895DC0101C06D93415034
:100760005040E0F70895A0E0B0E0E9EBF3E00C942E
:100770007D069E01275F3F4F8D819E816F81788529
:10078000A9010E94F0032096E2E00C949906EF92F2
:10079000FF920F931F93CF93DF937C018B01DB01BB
:1007A00013968C9181FD03C0CFEFDFEF13C0C0E043
:1007B000D0E00BC0D8011896ED91FC911997B801C3
:1007C0000995892B11F0CFEFDFEFF70181917F01C0
:1007D000882381F7CE01CDB7DEB7E6E00C9495060D
:1007E000ABE0B0E0E6EFF3E00C946D063C012B01CA
:1007F0005A01FC0117821682838181FD03C06FEFCD
:100800007FEFC6C19AE0892E1E010894211C311C7D
:10081000F3012381F20123FD859123FF81912F01B3
:10082000882309F4B2C1853239F423FD859123FF71
:1008300081912F01853229F490E0B3010E94E305F4
:10084000E7CF982FFF24EE249924FFE1FF15D0F085
:100850009B3269F09C3228F4903259F0933291F433
:100860000EC09D3249F0903369F441E024C052E05B
:10087000F52A84E0F82A28C098E0F92A25C0E0E1AA
:10088000FE2A22C0F7FC29C0892F80538A3070F4D9
:10089000F6FE05C0989C902C1124980E15C0E89C7B
:1008A000E02C1124E80EF0E2FF2A0EC09E3229F45B
:1008B000F6FC6BC140E4F42A07C09C3619F450E8FA
:1008C000F52A02C0983649F4F20123FD959123FFE1
:1008D00091912F01992309F0B8CF892F8554833046
:1008E00018F08052833038F444E050E0A40EB51E76
:1008F0005FE359830FC0933631F0933779F0933526
:1009000009F056C020C0F5018081898342E050E0A3
:10091000A40EB51E610101E010E012C0F501C08017
:10092000D180F6FC03C06FEF7FEF02C0692D70E04D
:1009300042E050E0A40EB51EC6010E94D8058C010D
:100940005FE7F52214C0F501C080D180F6FC03C03A
:100950006FEF7FEF02C0692D70E042E050E0A40E1F
:10096000B51EC6010E94CD058C0150E8F52AF3FEA4
:1009700007C01AC080E290E0B3010E94E305EA9448
:100980008E2D90E008171907A8F30EC0F601F7FCAA
:100990008591F7FE81916F0190E0B3010E94E3051C
:1009A000E110EA94015010400115110579F7EAC0F1
:1009B000943611F0993669F5F7FE08C0F5012081EB
:1009C00031814281538184E090E00AC0F501808149
:1009D00091819C01442737FD4095542F82E090E09F
:1009E000A80EB91E9FE6F92257FF09C05095409501
:1009F000309521953F4F4F4F5F4FE0E8FE2ACA01E7
:100A0000B901A1012AE030E00E940F06D82ED218C9
:100A100040C0953729F41F2D1F7E2AE030E01DC00D
:100A20001F2D197F9F3661F0903720F4983509F01B
:100A3000ACC00FC0903739F0983709F0A6C004C099
:100A400028E030E00AC0106114FD146020E130E0BD
:100A500004C014FD166020E132E017FF08C0F50164
:100A6000608171818281938144E050E008C0F5018A
:100A700080819181BC0180E090E042E050E0A40ED2
:100A8000B51EA1010E940F06D82ED2188FE7F82EAE
:100A9000F122F6FE0BC05EEFF522D91438F4F4FE15
:100AA00007C0F2FC05C08FEEF82202C01D2D01C068
:100AB000192DF4FE0DC0FE01ED0DF11D8081803376
:100AC00019F499EEF92208C01F5FF2FE05C003C0B9
:100AD0008F2D867809F01F5F0F2DF3FC14C0F0FEF8
:100AE0000FC01E1510F09D2C0BC09D2C9E0C911A52
:100AF0001E2D06C080E290E0B3010E94E3051F5F57
:100B00001E15C0F304C01E1510F4E11A01C0EE2436
:100B100004FF0FC080E390E0B3010E94E30502FFF1
:100B20001DC001FD03C088E790E00EC088E590E09D
:100B30000BC0802F867891F001FF02C08BE201C0CC
:100B400080E2F7FC8DE290E0B3010E94E30506C06D
:100B500080E390E0B3010E94E3059A94D914C0F3B6
:100B6000DA94F101ED0DF11D808190E0B3010E9456
:100B7000E305DD20A9F706C080E290E0B3010E9402
:100B8000E305EA94EE20C1F743CEF3016681778155
:100B9000CB012B96E2E10C948906FC010590615093
:100BA00070400110D8F7809590958E0F9F1F089583
:100BB000FC016150704001900110D8F7809590952C
:100BC0008E0F9F1F08950F931F93CF93DF938C0178
:100BD000EB018B8181FF1BC082FF0DC02E813F8105
:100BE0008C819D812817390764F4E881F98101938C
:100BF000F983E88306C0E885F985802F0995892B5C
:100C000031F48E819F8101969F838E8302C00FEF06
:100C10001FEFC801DF91CF911F910F910895FA0145
:100C2000AA27283051F1203181F1E8946F936E7F2B
:100C30006E5F7F4F8F4F9F4FAF4FB1E03ED0B4E01C
:100C40003CD0670F781F891F9A1FA11D680F791F5D
:100C50008A1F911DA11D6A0F711D811D911DA11D6E
:100C600020D009F468943F912AE0269F112430197E
:100C7000305D3193DEF6CF010895462F4770405D19
:100C80004193B3E00FD0C9F7F6CF462F4F70405DC8
:100C90004A3318F0495D31FD4052419302D0A9F723
:100CA000EACFB4E0A6959795879577956795BA951D
:100CB000C9F700976105710508959B01AC010A2EE3
:100CC00006945795479537952795BA95C9F7620FBA
:100CD000731F841F951FA01D08952F923F924F925E
:100CE0005F926F927F928F929F92AF92BF92CF92BC
:100CF000DF92EF92FF920F931F93CF93DF93CDB7C5
:100D0000DEB7CA1BDB0B0FB6F894DEBF0FBECDBF3C
:100D100009942A88398848885F846E847D848C840D
:100D20009B84AA84B984C884DF80EE80FD800C8116
:100D30001B81AA81B981CE0FD11D0FB6F894DEBFF9
:0C0D40000FBECDBFED010895F894FFCF69
:100D4C0054657374652064652064656275670A0078
:100D5C0025643A202025640A0000000002000000EF
:100D6C00008A0100000000150100050000000000D1
:00000001FF
